{
  "contractName": "Donation",
  "abi": [
    {
      "constant": false,
      "inputs": [],
      "name": "donate",
      "outputs": [],
      "payable": true,
      "stateMutability": "payable",
      "type": "function"
    },
    {
      "constant": true,
      "inputs": [],
      "name": "balanceOf",
      "outputs": [
        {
          "internalType": "uint256",
          "name": "",
          "type": "uint256"
        }
      ],
      "payable": false,
      "stateMutability": "view",
      "type": "function"
    }
  ],
  "bytecode": "0x6080604052348015600f57600080fd5b50609a8061001e6000396000f3fe60806040526004361060265760003560e01c8063722713f714602b578063ed88c68e146053575b600080fd5b348015603657600080fd5b50603d605b565b6040518082815260200191505060405180910390f35b60596063565b005b600047905090565b56fea265627a7a723158208953a08b284bbf8daa7644442b811a2bf07c78cedb57d8f75e870f7665c899eb64736f6c63430005100032",
  "source": "pragma solidity ^0.5.16;\r\n\r\ncontract Donation {\r\n    function donate() external payable {}\r\n\r\n    function balanceOf() external view returns(uint) {\r\n        return address(this).balance;\r\n    }\r\n}",
  "sourcePath": "D:\\Projects\\BuyMeaCoffee\\donation-page\\Donation\\contracts\\Donation.sol",
  "compiler": {
    "name": "solc",
    "version": "0.5.16+commit.9c3226ce.Emscripten.clang"
  },
  "schemaVersion": "3.4.5",
  "updatedAt": "2022-03-05T18:06:28.693Z",
  "devdoc": {
    "methods": {}
  },
  "userdoc": {
    "methods": {}
  }
}